:03000000020800F3
:0C080000787FE4F6D8FD758122020847DD
:10091C001008343543573930435734354157393043
:02092C0043572F
:0308F0001208F3F8
:1008F300E4F51BF51CE4F51DF51E051EE51E70024F
:10090300051DB4F4F5E51DB401F0051CE51C7002EA
:09091300051B64C8451B70DD22C0
:0C092F00758920758DFD759850D28E22C0
:08093B008F993099FDC2992249
:10088C0012092FE4F518F519F51FF520E4F521F5FB
:10089C0022E51925E025E024082522F8E6F51AFFC3
:1008AC0012093B1208F00522E52270020521C394BF
:1008BC0004E5216480948040D80519E5197002057F
:1008CC00181208F01208F31208F37F2012093B05E6
:1008DC0020E5207002051FC39404E51F64809480FA
:0408EC0040AA809FFF
:10080C0002088CE493A3F8E493A34003F68001F26E
:10081C0008DFF48029E493A3F85407240CC8C333ED
:10082C00C4540F4420C8834004F456800146F6DFBC
:10083C00E4800B010204081020408090091CE47E27
:10084C00019360BCA3FF543F30E509541FFEE493B1
:10085C00A360010ECF54C025E060A840B8E493A378
:10086C00FAE493A3F8E493A3C8C582C8CAC583CAA3
:10087C00F0A3C8C582C8CAC583CADFE9DEE780BE5B
:01092E0000C8
:00000001FF
