:030000000208F6FD
:0C08F600787FE4F6D8FD75810902093D09
:040AAD00020800003B
:070A3800120A7A7F0A7E001A
:100A3F00E4FDFCC3ED9FEC9E5015E4FBFA0BBB00ED
:0F0A4F00010ABA04F8BBFBF50DBD00010C80E4F1
:010A5E002275
:100A7A008F90C2B6C2B5D2B47F017E00120A3FC2BD
:020A8A00B42294
:1009C1001209EC7F571209EC12098A7F341209ECE3
:1009D1007F351209EC7F201209EC7F641209EC7F4C
:0B09E100651209EC7F671209EC7F2013
:1009EC008F90D2B6C2B5D2B47F017E00120A3FC23C
:0209FC00B42223
:100A5F007F38120A387F0F120A387F01120A387F47
:0B0A6F0081120A7A7F0A7E00020A3F13
:050AA800D2AFD2AC2228
:0C0A9C00758920758DFD759850D28E2252
:1009FE00120A5F7F0C120A7A7F411209EC7F5312A2
:100A0E0009EC7F431209EC7F491209EC7F49120968
:100A1E00E77F431209EC7F6F1209EC7F641209EC39
:0A0A2E007F651209EC7F3A0209EC23
:080982001209EC7F571209EC89
:10098A007FC0120A7A7F201209EC7F521209EC7F8B
:10099A006F1209EC7F741209EC7F611209EC7F7403
:1009AA001209EC7F691209EC7F6F1209EC7F6E1253
:0709BA0009EC7F3A0209EC91
:03002300020800D0
:10080000C0E0C0D075D000C002C003C004C005C0A5
:1008100006C0070509E50970020508C29864044589
:100820000870241209FE7F341209EC7F351209EC9E
:100830007F431209C17F431209EC7F571209EC75FF
:10084000A00075A008D2A4E50964084508702E121E
:1008500009FE7F391209EC7F301209EC7F4312093F
:10086000827F391209EC7F301209D37F431209ECE1
:100870007F571209EC75A00075A00CD2A5E509649C
:100880000C450870241209FE7F341209EC7F3512E2
:1008900009EC7F411209C17F411209EC7F5712090F
:1008A000EC75A00075A001D2A6E50964104508709A
:1008B000341209FE7F391209EC7F301209EC7F41B6
:1008C0001209827F391209EC7F301209D37F41125D
:1008D00009EC7F571209EC75A00075A003D2A7752B
:1008E0000800750900D007D006D005D004D003D089
:0608F00002D0D0D0E0327E
:010AB2002221
:100A8C00E4F5A0F590120AA8120A9C120A5F80FEE7
:10090200020A8CE493A3F8E493A34003F68001F275
:1009120008DFF48029E493A3F85407240CC8C333F6
:10092200C4540F4420C8834004F456800146F6DFC5
:10093200E4800B0102040810204080900AADE47E9E
:10094200019360BCA3FF543F30E509541FFEE493BA
:10095200A360010ECF54C025E060A840B8E493A381
:10096200FAE493A3F8E493A3C8C582C8CAC583CAAC
:10097200F0A3C8C582C8CAC583CADFE9DEE780BE64
:010AB1000044
:00000001FF
